{
  "abi": [
    {
      "inputs": [
        {
          "internalType": "address",
          "name": "_turnstile",
          "type": "address"
        }
      ],
      "stateMutability": "nonpayable",
      "type": "constructor"
    },
    {
      "stateMutability": "payable",
      "type": "fallback"
    },
    {
      "inputs": [],
      "name": "idTurnstile",
      "outputs": [
        {
          "internalType": "uint256",
          "name": "",
          "type": "uint256"
        }
      ],
      "stateMutability": "view",
      "type": "function"
    },
    {
      "inputs": [],
      "name": "registerContractToTurnstile",
      "outputs": [],
      "stateMutability": "nonpayable",
      "type": "function"
    },
    {
      "inputs": [],
      "name": "turnstile",
      "outputs": [
        {
          "internalType": "contract Turnstile",
          "name": "",
          "type": "address"
        }
      ],
      "stateMutability": "view",
      "type": "function"
    },
    {
      "inputs": [],
      "name": "withdrawFromTurnstile",
      "outputs": [],
      "stateMutability": "nonpayable",
      "type": "function"
    }
  ],
  "bytecode": {
    "object": "0x608060405234801561001057600080fd5b5060405161035138038061035183398101604081905261002f91610054565b600080546001600160a01b0319166001600160a01b0392909216919091179055610084565b60006020828403121561006657600080fd5b81516001600160a01b038116811461007d57600080fd5b9392505050565b6102be806100936000396000f3fe60806040526004361061003f5760003560e01c8063023b4f5f146100e757806371015406146100fc5780637629324f14610111578063b38d43571461013a575b6000546798a7d9b8314c00006001600160a01b0390911631106100e557600054600154604051631cc6d2f960e31b81526004810191909152306024820152670de0b6b3a764000060448201526001600160a01b039091169063e63697c8906064016020604051808303816000875af11580156100bf573d6000803e3d6000fd5b505050506040513d601f19601f820116820180604052508101906100e3919061026f565b505b005b3480156100f357600080fd5b506100e5610172565b34801561010857600080fd5b506100e56101fc565b34801561011d57600080fd5b5061012760015481565b6040519081526020015b60405180910390f35b34801561014657600080fd5b5060005461015a906001600160a01b031681565b6040516001600160a01b039091168152602001610131565b600054600154604051631cc6d2f960e31b81526004810191909152306024820152670de0b6b3a764000060448201526001600160a01b039091169063e63697c8906064016020604051808303816000875af11580156101d5573d6000803e3d6000fd5b505050506040513d601f19601f820116820180604052508101906101f9919061026f565b50565b600054604051632210724360e11b81523060048201526001600160a01b0390911690634420e486906024016020604051808303816000875af1158015610246573d6000803e3d6000fd5b505050506040513d601f19601f8201168201806040525081019061026a919061026f565b600155565b60006020828403121561028157600080fd5b505191905056fea26469706673582212201d291baa0ae3b0d6aeae330d52764a985666f846c7fc0a4ec61edc675c13d3d964736f6c63430008110033",
    "linkReferences": {}
  },
  "methodIdentifiers": {
    "idTurnstile()": "7629324f",
    "registerContractToTurnstile()": "71015406",
    "turnstile()": "b38d4357",
    "withdrawFromTurnstile()": "023b4f5f"
  },
  "id": 21
}