{
  "abi": [
    {
      "inputs": [],
      "stateMutability": "nonpayable",
      "type": "constructor"
    },
    {
      "inputs": [],
      "name": "AlreadyRegistered",
      "type": "error"
    },
    {
      "inputs": [],
      "name": "InvalidRecipient",
      "type": "error"
    },
    {
      "inputs": [],
      "name": "InvalidTokenId",
      "type": "error"
    },
    {
      "inputs": [],
      "name": "NotAnOwner",
      "type": "error"
    },
    {
      "inputs": [],
      "name": "NothingToDistribute",
      "type": "error"
    },
    {
      "inputs": [],
      "name": "NothingToWithdraw",
      "type": "error"
    },
    {
      "inputs": [],
      "name": "Unregistered",
      "type": "error"
    },
    {
      "anonymous": false,
      "inputs": [
        {
          "indexed": true,
          "internalType": "address",
          "name": "owner",
          "type": "address"
        },
        {
          "indexed": true,
          "internalType": "address",
          "name": "approved",
          "type": "address"
        },
        {
          "indexed": true,
          "internalType": "uint256",
          "name": "tokenId",
          "type": "uint256"
        }
      ],
      "name": "Approval",
      "type": "event"
    },
    {
      "anonymous": false,
      "inputs": [
        {
          "indexed": true,
          "internalType": "address",
          "name": "owner",
          "type": "address"
        },
        {
          "indexed": true,
          "internalType": "address",
          "name": "operator",
          "type": "address"
        },
        {
          "indexed": false,
          "internalType": "bool",
          "name": "approved",
          "type": "bool"
        }
      ],
      "name": "ApprovalForAll",
      "type": "event"
    },
    {
      "anonymous": false,
      "inputs": [
        {
          "indexed": false,
          "internalType": "address",
          "name": "smartContract",
          "type": "address"
        },
        {
          "indexed": false,
          "internalType": "uint256",
          "name": "tokenId",
          "type": "uint256"
        }
      ],
      "name": "Assign",
      "type": "event"
    },
    {
      "anonymous": false,
      "inputs": [
        {
          "indexed": false,
          "internalType": "uint256",
          "name": "tokenId",
          "type": "uint256"
        },
        {
          "indexed": false,
          "internalType": "uint256",
          "name": "feeAmount",
          "type": "uint256"
        }
      ],
      "name": "DistributeFees",
      "type": "event"
    },
    {
      "anonymous": false,
      "inputs": [
        {
          "indexed": true,
          "internalType": "address",
          "name": "previousOwner",
          "type": "address"
        },
        {
          "indexed": true,
          "internalType": "address",
          "name": "newOwner",
          "type": "address"
        }
      ],
      "name": "OwnershipTransferred",
      "type": "event"
    },
    {
      "anonymous": false,
      "inputs": [
        {
          "indexed": false,
          "internalType": "address",
          "name": "smartContract",
          "type": "address"
        },
        {
          "indexed": false,
          "internalType": "address",
          "name": "recipient",
          "type": "address"
        },
        {
          "indexed": false,
          "internalType": "uint256",
          "name": "tokenId",
          "type": "uint256"
        }
      ],
      "name": "Register",
      "type": "event"
    },
    {
      "anonymous": false,
      "inputs": [
        {
          "indexed": true,
          "internalType": "address",
          "name": "from",
          "type": "address"
        },
        {
          "indexed": true,
          "internalType": "address",
          "name": "to",
          "type": "address"
        },
        {
          "indexed": true,
          "internalType": "uint256",
          "name": "tokenId",
          "type": "uint256"
        }
      ],
      "name": "Transfer",
      "type": "event"
    },
    {
      "anonymous": false,
      "inputs": [
        {
          "indexed": false,
          "internalType": "uint256",
          "name": "tokenId",
          "type": "uint256"
        },
        {
          "indexed": false,
          "internalType": "address",
          "name": "recipient",
          "type": "address"
        },
        {
          "indexed": false,
          "internalType": "uint256",
          "name": "feeAmount",
          "type": "uint256"
        }
      ],
      "name": "Withdraw",
      "type": "event"
    },
    {
      "inputs": [
        {
          "internalType": "address",
          "name": "to",
          "type": "address"
        },
        {
          "internalType": "uint256",
          "name": "tokenId",
          "type": "uint256"
        }
      ],
      "name": "approve",
      "outputs": [],
      "stateMutability": "nonpayable",
      "type": "function"
    },
    {
      "inputs": [
        {
          "internalType": "uint256",
          "name": "_tokenId",
          "type": "uint256"
        }
      ],
      "name": "assign",
      "outputs": [
        {
          "internalType": "uint256",
          "name": "",
          "type": "uint256"
        }
      ],
      "stateMutability": "nonpayable",
      "type": "function"
    },
    {
      "inputs": [
        {
          "internalType": "address",
          "name": "owner",
          "type": "address"
        }
      ],
      "name": "balanceOf",
      "outputs": [
        {
          "internalType": "uint256",
          "name": "",
          "type": "uint256"
        }
      ],
      "stateMutability": "view",
      "type": "function"
    },
    {
      "inputs": [
        {
          "internalType": "uint256",
          "name": "",
          "type": "uint256"
        }
      ],
      "name": "balances",
      "outputs": [
        {
          "internalType": "uint256",
          "name": "",
          "type": "uint256"
        }
      ],
      "stateMutability": "view",
      "type": "function"
    },
    {
      "inputs": [
        {
          "internalType": "uint256",
          "name": "_tokenId",
          "type": "uint256"
        }
      ],
      "name": "distributeFees",
      "outputs": [],
      "stateMutability": "payable",
      "type": "function"
    },
    {
      "inputs": [
        {
          "internalType": "address",
          "name": "",
          "type": "address"
        }
      ],
      "name": "feeRecipient",
      "outputs": [
        {
          "internalType": "uint256",
          "name": "tokenId",
          "type": "uint256"
        },
        {
          "internalType": "bool",
          "name": "registered",
          "type": "bool"
        }
      ],
      "stateMutability": "view",
      "type": "function"
    },
    {
      "inputs": [
        {
          "internalType": "uint256",
          "name": "tokenId",
          "type": "uint256"
        }
      ],
      "name": "getApproved",
      "outputs": [
        {
          "internalType": "address",
          "name": "",
          "type": "address"
        }
      ],
      "stateMutability": "view",
      "type": "function"
    },
    {
      "inputs": [
        {
          "internalType": "address",
          "name": "_smartContract",
          "type": "address"
        }
      ],
      "name": "getTokenId",
      "outputs": [
        {
          "internalType": "uint256",
          "name": "",
          "type": "uint256"
        }
      ],
      "stateMutability": "view",
      "type": "function"
    },
    {
      "inputs": [
        {
          "internalType": "address",
          "name": "owner",
          "type": "address"
        },
        {
          "internalType": "address",
          "name": "operator",
          "type": "address"
        }
      ],
      "name": "isApprovedForAll",
      "outputs": [
        {
          "internalType": "bool",
          "name": "",
          "type": "bool"
        }
      ],
      "stateMutability": "view",
      "type": "function"
    },
    {
      "inputs": [
        {
          "internalType": "address",
          "name": "_smartContract",
          "type": "address"
        }
      ],
      "name": "isRegistered",
      "outputs": [
        {
          "internalType": "bool",
          "name": "",
          "type": "bool"
        }
      ],
      "stateMutability": "view",
      "type": "function"
    },
    {
      "inputs": [],
      "name": "name",
      "outputs": [
        {
          "internalType": "string",
          "name": "",
          "type": "string"
        }
      ],
      "stateMutability": "view",
      "type": "function"
    },
    {
      "inputs": [],
      "name": "owner",
      "outputs": [
        {
          "internalType": "address",
          "name": "",
          "type": "address"
        }
      ],
      "stateMutability": "view",
      "type": "function"
    },
    {
      "inputs": [
        {
          "internalType": "uint256",
          "name": "tokenId",
          "type": "uint256"
        }
      ],
      "name": "ownerOf",
      "outputs": [
        {
          "internalType": "address",
          "name": "",
          "type": "address"
        }
      ],
      "stateMutability": "view",
      "type": "function"
    },
    {
      "inputs": [
        {
          "internalType": "address",
          "name": "_recipient",
          "type": "address"
        }
      ],
      "name": "register",
      "outputs": [
        {
          "internalType": "uint256",
          "name": "tokenId",
          "type": "uint256"
        }
      ],
      "stateMutability": "nonpayable",
      "type": "function"
    },
    {
      "inputs": [],
      "name": "renounceOwnership",
      "outputs": [],
      "stateMutability": "nonpayable",
      "type": "function"
    },
    {
      "inputs": [
        {
          "internalType": "address",
          "name": "from",
          "type": "address"
        },
        {
          "internalType": "address",
          "name": "to",
          "type": "address"
        },
        {
          "internalType": "uint256",
          "name": "tokenId",
          "type": "uint256"
        }
      ],
      "name": "safeTransferFrom",
      "outputs": [],
      "stateMutability": "nonpayable",
      "type": "function"
    },
    {
      "inputs": [
        {
          "internalType": "address",
          "name": "from",
          "type": "address"
        },
        {
          "internalType": "address",
          "name": "to",
          "type": "address"
        },
        {
          "internalType": "uint256",
          "name": "tokenId",
          "type": "uint256"
        },
        {
          "internalType": "bytes",
          "name": "data",
          "type": "bytes"
        }
      ],
      "name": "safeTransferFrom",
      "outputs": [],
      "stateMutability": "nonpayable",
      "type": "function"
    },
    {
      "inputs": [
        {
          "internalType": "address",
          "name": "operator",
          "type": "address"
        },
        {
          "internalType": "bool",
          "name": "approved",
          "type": "bool"
        }
      ],
      "name": "setApprovalForAll",
      "outputs": [],
      "stateMutability": "nonpayable",
      "type": "function"
    },
    {
      "inputs": [
        {
          "internalType": "bytes4",
          "name": "interfaceId",
          "type": "bytes4"
        }
      ],
      "name": "supportsInterface",
      "outputs": [
        {
          "internalType": "bool",
          "name": "",
          "type": "bool"
        }
      ],
      "stateMutability": "view",
      "type": "function"
    },
    {
      "inputs": [],
      "name": "symbol",
      "outputs": [
        {
          "internalType": "string",
          "name": "",
          "type": "string"
        }
      ],
      "stateMutability": "view",
      "type": "function"
    },
    {
      "inputs": [
        {
          "internalType": "uint256",
          "name": "index",
          "type": "uint256"
        }
      ],
      "name": "tokenByIndex",
      "outputs": [
        {
          "internalType": "uint256",
          "name": "",
          "type": "uint256"
        }
      ],
      "stateMutability": "view",
      "type": "function"
    },
    {
      "inputs": [
        {
          "internalType": "address",
          "name": "owner",
          "type": "address"
        },
        {
          "internalType": "uint256",
          "name": "index",
          "type": "uint256"
        }
      ],
      "name": "tokenOfOwnerByIndex",
      "outputs": [
        {
          "internalType": "uint256",
          "name": "",
          "type": "uint256"
        }
      ],
      "stateMutability": "view",
      "type": "function"
    },
    {
      "inputs": [
        {
          "internalType": "uint256",
          "name": "tokenId",
          "type": "uint256"
        }
      ],
      "name": "tokenURI",
      "outputs": [
        {
          "internalType": "string",
          "name": "",
          "type": "string"
        }
      ],
      "stateMutability": "view",
      "type": "function"
    },
    {
      "inputs": [],
      "name": "totalSupply",
      "outputs": [
        {
          "internalType": "uint256",
          "name": "",
          "type": "uint256"
        }
      ],
      "stateMutability": "view",
      "type": "function"
    },
    {
      "inputs": [
        {
          "internalType": "address",
          "name": "from",
          "type": "address"
        },
        {
          "internalType": "address",
          "name": "to",
          "type": "address"
        },
        {
          "internalType": "uint256",
          "name": "tokenId",
          "type": "uint256"
        }
      ],
      "name": "transferFrom",
      "outputs": [],
      "stateMutability": "nonpayable",
      "type": "function"
    },
    {
      "inputs": [
        {
          "internalType": "address",
          "name": "newOwner",
          "type": "address"
        }
      ],
      "name": "transferOwnership",
      "outputs": [],
      "stateMutability": "nonpayable",
      "type": "function"
    },
    {
      "inputs": [
        {
          "internalType": "uint256",
          "name": "_tokenId",
          "type": "uint256"
        },
        {
          "internalType": "address payable",
          "name": "_recipient",
          "type": "address"
        },
        {
          "internalType": "uint256",
          "name": "_amount",
          "type": "uint256"
        }
      ],
      "name": "withdraw",
      "outputs": [
        {
          "internalType": "uint256",
          "name": "",
          "type": "uint256"
        }
      ],
      "stateMutability": "nonpayable",
      "type": "function"
    }
  ],
  "bytecode": {
    "object": "0x60806040523480156200001157600080fd5b50604051806040016040528060098152602001685475726e7374696c6560b81b815250604051806040016040528060098152602001685475726e7374696c6560b81b815250620000706200006a6200009660201b60201c565b6200009a565b60016200007e83826200018f565b5060026200008d82826200018f565b5050506200025b565b3390565b600080546001600160a01b038381166001600160a01b0319831681178455604051919092169283917f8be0079c531659141344cd1fd0a4f28419497f9722a3daafe3b4186f6b6457e09190a35050565b634e487b7160e01b600052604160045260246000fd5b600181811c908216806200011557607f821691505b6020821081036200013657634e487b7160e01b600052602260045260246000fd5b50919050565b601f8211156200018a57600081815260208120601f850160051c81016020861015620001655750805b601f850160051c820191505b81811015620001865782815560010162000171565b5050505b505050565b81516001600160401b03811115620001ab57620001ab620000ea565b620001c381620001bc845462000100565b846200013c565b602080601f831160018114620001fb5760008415620001e25750858301515b600019600386901b1c1916600185901b17855562000186565b600085815260208120601f198616915b828110156200022c578886015182559484019460019091019084016200020b565b50858210156200024b5787850151600019600388901b60f8161c191681555b5050505050600190811b01905550565b61201a806200026b6000396000f3fe60806040526004361061019c5760003560e01c80636352211e116100ec578063c3c5a5471161008a578063e63697c811610064578063e63697c8146104c5578063e985e9c5146104e5578063f15376861461052e578063f2fde38b1461054e57600080fd5b8063c3c5a54714610439578063c87b56dd14610459578063d78162e91461047957600080fd5b80638da5cb5b116100c65780638da5cb5b146103c657806395d89b41146103e4578063a22cb465146103f9578063b88d4fde1461041957600080fd5b80636352211e1461037157806370a0823114610391578063715018a6146103b157600080fd5b80632f745c59116101595780634903b0d1116101335780634903b0d1146102f15780634c0811381461031e5780634f6ccce71461033e5780636029bf9f1461035e57600080fd5b80632f745c591461029157806342842e0e146102b15780634420e486146102d157600080fd5b806301ffc9a7146101a157806306fdde03146101d6578063081812fc146101f8578063095ea7b31461023057806318160ddd1461025257806323b872dd14610271575b600080fd5b3480156101ad57600080fd5b506101c16101bc366004611b1a565b61056e565b60405190151581526020015b60405180910390f35b3480156101e257600080fd5b506101eb610599565b6040516101cd9190611b87565b34801561020457600080fd5b50610218610213366004611b9a565b61062b565b6040516001600160a01b0390911681526020016101cd565b34801561023c57600080fd5b5061025061024b366004611bc8565b610652565b005b34801561025e57600080fd5b506009545b6040519081526020016101cd565b34801561027d57600080fd5b5061025061028c366004611bf4565b61076c565b34801561029d57600080fd5b506102636102ac366004611bc8565b61079d565b3480156102bd57600080fd5b506102506102cc366004611bf4565b610833565b3480156102dd57600080fd5b506102636102ec366004611c35565b61084e565b3480156102fd57600080fd5b5061026361030c366004611b9a565b600c6020526000908152604090205481565b34801561032a57600080fd5b50610263610339366004611b9a565b610947565b34801561034a57600080fd5b50610263610359366004611b9a565b610a3b565b61025061036c366004611b9a565b610ace565b34801561037d57600080fd5b5061021861038c366004611b9a565b610b54565b34801561039d57600080fd5b506102636103ac366004611c35565b610bb4565b3480156103bd57600080fd5b50610250610c3a565b3480156103d257600080fd5b506000546001600160a01b0316610218565b3480156103f057600080fd5b506101eb610c4e565b34801561040557600080fd5b50610250610414366004611c52565b610c5d565b34801561042557600080fd5b50610250610434366004611ca6565b610c6c565b34801561044557600080fd5b506101c1610454366004611c35565b610ca4565b34801561046557600080fd5b506101eb610474366004611b9a565b610cc5565b34801561048557600080fd5b506104b0610494366004611c35565b600b602052600090815260409020805460019091015460ff1682565b604080519283529015156020830152016101cd565b3480156104d157600080fd5b506102636104e0366004611d86565b610d39565b3480156104f157600080fd5b506101c1610500366004611dad565b6001600160a01b03918216600090815260066020908152604080832093909416825291909152205460ff1690565b34801561053a57600080fd5b50610263610549366004611c35565b610e2d565b34801561055a57600080fd5b50610250610569366004611c35565b610e71565b60006001600160e01b0319821663780e9d6360e01b1480610593575061059382610eea565b92915050565b6060600180546105a890611ddb565b80601f01602080910402602001604051908101604052809291908181526020018280546105d490611ddb565b80156106215780601f106105f657610100808354040283529160200191610621565b820191906000526020600020905b81548152906001019060200180831161060457829003601f168201915b5050505050905090565b600061063682610f3a565b506000908152600560205260409020546001600160a01b031690565b600061065d82610b54565b9050806001600160a01b0316836001600160a01b0316036106cf5760405162461bcd60e51b815260206004820152602160248201527f4552433732313a20617070726f76616c20746f2063757272656e74206f776e656044820152603960f91b60648201526084015b60405180910390fd5b336001600160a01b03821614806106eb57506106eb8133610500565b61075d5760405162461bcd60e51b815260206004820152603d60248201527f4552433732313a20617070726f76652063616c6c6572206973206e6f7420746f60448201527f6b656e206f776e6572206f7220617070726f76656420666f7220616c6c00000060648201526084016106c6565b6107678383610f99565b505050565b6107763382611007565b6107925760405162461bcd60e51b81526004016106c690611e0f565b610767838383611086565b60006107a883610bb4565b821061080a5760405162461bcd60e51b815260206004820152602b60248201527f455243373231456e756d657261626c653a206f776e657220696e646578206f7560448201526a74206f6620626f756e647360a81b60648201526084016106c6565b506001600160a01b03919091166000908152600760209081526040808320938352929052205490565b61076783838360405180602001604052806000815250610c6c565b60003361085a81610ca4565b1561087857604051630ea075bf60e21b815260040160405180910390fd5b336001600160a01b0384166108a057604051634e46966960e11b815260040160405180910390fd5b60095492506108af84846111f5565b604080516001600160a01b038084168252861660208201529081018490527fcc0bec1447060c88cdc5a739cf29cfa26c453574dd3f5b9e4dcc317d6401cb1c9060600160405180910390a1604080518082018252848152600160208083018281526001600160a01b03959095166000908152600b909152929092209051815591519101805460ff191691151591909117905550919050565b60003361095381610ca4565b1561097157604051630ea075bf60e21b815260040160405180910390fd5b60008381526003602052604090205433906001600160a01b03166109a8576040516307ed98ed60e31b815260040160405180910390fd5b604080516001600160a01b0383168152602081018690527f8a0e37b73a0d9c82e205d4d1a3ff3d0b57ce5f4d7bccf6bac03336dc101cb7ba910160405180910390a1604080518082018252858152600160208083018281526001600160a01b03959095166000908152600b909152929092209051815591519101805460ff19169115159190911790558291505b50919050565b6000610a4660095490565b8210610aa95760405162461bcd60e51b815260206004820152602c60248201527f455243373231456e756d657261626c653a20676c6f62616c20696e646578206f60448201526b7574206f6620626f756e647360a01b60648201526084016106c6565b60098281548110610abc57610abc611e5c565b90600052602060002001549050919050565b610ad661138c565b34600003610af65760405162598fc960e21b815260040160405180910390fd5b6000818152600c602052604081208054349290610b14908490611e88565b9091555050604080518281523460208201527f916ad8171ef8c567c7790377a142f0200f9565940680c06e30dd105cfd924968910160405180910390a150565b6000818152600360205260408120546001600160a01b0316806105935760405162461bcd60e51b8152602060048201526018602482015277115490cdcc8c4e881a5b9d985b1a59081d1bdad95b88125160421b60448201526064016106c6565b60006001600160a01b038216610c1e5760405162461bcd60e51b815260206004820152602960248201527f4552433732313a2061646472657373207a65726f206973206e6f7420612076616044820152683634b21037bbb732b960b91b60648201526084016106c6565b506001600160a01b031660009081526004602052604090205490565b610c4261138c565b610c4c60006113e6565b565b6060600280546105a890611ddb565b610c68338383611436565b5050565b610c763383611007565b610c925760405162461bcd60e51b81526004016106c690611e0f565b610c9e84848484611504565b50505050565b6001600160a01b03166000908152600b602052604090206001015460ff1690565b6060610cd082610f3a565b6000610ce760408051602081019091526000815290565b90506000815111610d075760405180602001604052806000815250610d32565b80610d1184611537565b604051602001610d22929190611e9b565b6040516020818303038152906040525b9392505050565b60008333610d4682610b54565b6001600160a01b031614610d6d57604051631dd523ff60e31b815260040160405180910390fd5b6000858152600c6020526040902054801580610d87575083155b15610da557604051630686827b60e51b815260040160405180910390fd5b80841115610db1578093505b610dbb8482611eca565b6000878152600c60209081526040918290209290925580518881526001600160a01b0388169281019290925281018590527f9da6493a92039daf47d1f2d7a782299c5994c6323eb1e972f69c432089ec52bf9060600160405180910390a1610e2385856115ca565b5091949350505050565b6000610e3882610ca4565b610e5557604051633ba45e7360e11b815260040160405180910390fd5b506001600160a01b03166000908152600b602052604090205490565b610e7961138c565b6001600160a01b038116610ede5760405162461bcd60e51b815260206004820152602660248201527f4f776e61626c653a206e6577206f776e657220697320746865207a65726f206160448201526564647265737360d01b60648201526084016106c6565b610ee7816113e6565b50565b60006001600160e01b031982166380ac58cd60e01b1480610f1b57506001600160e01b03198216635b5e139f60e01b145b8061059357506301ffc9a760e01b6001600160e01b0319831614610593565b6000818152600360205260409020546001600160a01b0316610ee75760405162461bcd60e51b8152602060048201526018602482015277115490cdcc8c4e881a5b9d985b1a59081d1bdad95b88125160421b60448201526064016106c6565b600081815260056020526040902080546001600160a01b0319166001600160a01b0384169081179091558190610fce82610b54565b6001600160a01b03167f8c5be1e5ebec7d5bd14f71427d1e84f3dd0314c0f7b2291e5b200ac8c7c3b92560405160405180910390a45050565b60008061101383610b54565b9050806001600160a01b0316846001600160a01b0316148061105a57506001600160a01b0380821660009081526006602090815260408083209388168352929052205460ff165b8061107e5750836001600160a01b03166110738461062b565b6001600160a01b0316145b949350505050565b826001600160a01b031661109982610b54565b6001600160a01b0316146110bf5760405162461bcd60e51b81526004016106c690611edd565b6001600160a01b0382166111215760405162461bcd60e51b8152602060048201526024808201527f4552433732313a207472616e7366657220746f20746865207a65726f206164646044820152637265737360e01b60648201526084016106c6565b61112c8383836116e3565b826001600160a01b031661113f82610b54565b6001600160a01b0316146111655760405162461bcd60e51b81526004016106c690611edd565b600081815260056020908152604080832080546001600160a01b03199081169091556001600160a01b0387811680865260048552838620805460001901905590871680865283862080546001019055868652600390945282852080549092168417909155905184937fddf252ad1be2c89b69c2b068fc378daa952ba7f163c4a11628f55a4df523b3ef91a4505050565b6001600160a01b03821661124b5760405162461bcd60e51b815260206004820181905260248201527f4552433732313a206d696e7420746f20746865207a65726f206164647265737360448201526064016106c6565b6000818152600360205260409020546001600160a01b0316156112b05760405162461bcd60e51b815260206004820152601c60248201527f4552433732313a20746f6b656e20616c7265616479206d696e7465640000000060448201526064016106c6565b6112bc600083836116e3565b6000818152600360205260409020546001600160a01b0316156113215760405162461bcd60e51b815260206004820152601c60248201527f4552433732313a20746f6b656e20616c7265616479206d696e7465640000000060448201526064016106c6565b6001600160a01b038216600081815260046020908152604080832080546001019055848352600390915280822080546001600160a01b0319168417905551839291907fddf252ad1be2c89b69c2b068fc378daa952ba7f163c4a11628f55a4df523b3ef908290a45050565b6000546001600160a01b03163314610c4c5760405162461bcd60e51b815260206004820181905260248201527f4f776e61626c653a2063616c6c6572206973206e6f7420746865206f776e657260448201526064016106c6565b600080546001600160a01b038381166001600160a01b0319831681178455604051919092169283917f8be0079c531659141344cd1fd0a4f28419497f9722a3daafe3b4186f6b6457e09190a35050565b816001600160a01b0316836001600160a01b0316036114975760405162461bcd60e51b815260206004820152601960248201527f4552433732313a20617070726f766520746f2063616c6c65720000000000000060448201526064016106c6565b6001600160a01b03838116600081815260066020908152604080832094871680845294825291829020805460ff191686151590811790915591519182527f17307eab39ab6107e8899845ad3d59bd9653f200f220920489ca2b5937696c31910160405180910390a3505050565b61150f848484611086565b61151b8484848461179b565b610c9e5760405162461bcd60e51b81526004016106c690611f22565b606060006115448361189c565b600101905060008167ffffffffffffffff81111561156457611564611c90565b6040519080825280601f01601f19166020018201604052801561158e576020820181803683370190505b5090508181016020015b600019016f181899199a1a9b1b9c1cb0b131b232b360811b600a86061a8153600a850494508461159857509392505050565b8047101561161a5760405162461bcd60e51b815260206004820152601d60248201527f416464726573733a20696e73756666696369656e742062616c616e636500000060448201526064016106c6565b6000826001600160a01b03168260405160006040518083038185875af1925050503d8060008114611667576040519150601f19603f3d011682016040523d82523d6000602084013e61166c565b606091505b50509050806107675760405162461bcd60e51b815260206004820152603a60248201527f416464726573733a20756e61626c6520746f2073656e642076616c75652c207260448201527f6563697069656e74206d6179206861766520726576657274656400000000000060648201526084016106c6565b6001600160a01b03831661173e5761173981600980546000838152600a60205260408120829055600182018355919091527f6e1540171b6c0c960b71a7020d9f60077f6af931a8bbf590da0223dacf75c7af0155565b611761565b816001600160a01b0316836001600160a01b031614611761576117618382611974565b6001600160a01b0382166117785761076781611a11565b826001600160a01b0316826001600160a01b031614610767576107678282611ac0565b60006001600160a01b0384163b1561189157604051630a85bd0160e11b81526001600160a01b0385169063150b7a02906117df903390899088908890600401611f74565b6020604051808303816000875af192505050801561181a575060408051601f3d908101601f1916820190925261181791810190611fb1565b60015b611877573d808015611848576040519150601f19603f3d011682016040523d82523d6000602084013e61184d565b606091505b50805160000361186f5760405162461bcd60e51b81526004016106c690611f22565b805181602001fd5b6001600160e01b031916630a85bd0160e11b14905061107e565b506001949350505050565b60008072184f03e93ff9f4daa797ed6e38ed64bf6a1f0160401b83106118db5772184f03e93ff9f4daa797ed6e38ed64bf6a1f0160401b830492506040015b6d04ee2d6d415b85acef81000000008310611907576d04ee2d6d415b85acef8100000000830492506020015b662386f26fc10000831061192557662386f26fc10000830492506010015b6305f5e100831061193d576305f5e100830492506008015b612710831061195157612710830492506004015b60648310611963576064830492506002015b600a83106105935760010192915050565b6000600161198184610bb4565b61198b9190611eca565b6000838152600860205260409020549091508082146119de576001600160a01b03841660009081526007602090815260408083208584528252808320548484528184208190558352600890915290208190555b5060009182526008602090815260408084208490556001600160a01b039094168352600781528383209183525290812055565b600954600090611a2390600190611eca565b6000838152600a602052604081205460098054939450909284908110611a4b57611a4b611e5c565b906000526020600020015490508060098381548110611a6c57611a6c611e5c565b6000918252602080832090910192909255828152600a90915260408082208490558582528120556009805480611aa457611aa4611fce565b6001900381819060005260206000200160009055905550505050565b6000611acb83610bb4565b6001600160a01b039093166000908152600760209081526040808320868452825280832085905593825260089052919091209190915550565b6001600160e01b031981168114610ee757600080fd5b600060208284031215611b2c57600080fd5b8135610d3281611b04565b60005b83811015611b52578181015183820152602001611b3a565b50506000910152565b60008151808452611b73816020860160208601611b37565b601f01601f19169290920160200192915050565b602081526000610d326020830184611b5b565b600060208284031215611bac57600080fd5b5035919050565b6001600160a01b0381168114610ee757600080fd5b60008060408385031215611bdb57600080fd5b8235611be681611bb3565b946020939093013593505050565b600080600060608486031215611c0957600080fd5b8335611c1481611bb3565b92506020840135611c2481611bb3565b929592945050506040919091013590565b600060208284031215611c4757600080fd5b8135610d3281611bb3565b60008060408385031215611c6557600080fd5b8235611c7081611bb3565b915060208301358015158114611c8557600080fd5b809150509250929050565b634e487b7160e01b600052604160045260246000fd5b60008060008060808587031215611cbc57600080fd5b8435611cc781611bb3565b93506020850135611cd781611bb3565b925060408501359150606085013567ffffffffffffffff80821115611cfb57600080fd5b818701915087601f830112611d0f57600080fd5b813581811115611d2157611d21611c90565b604051601f8201601f19908116603f01168101908382118183101715611d4957611d49611c90565b816040528281528a6020848701011115611d6257600080fd5b82602086016020830137600060208483010152809550505050505092959194509250565b600080600060608486031215611d9b57600080fd5b833592506020840135611c2481611bb3565b60008060408385031215611dc057600080fd5b8235611dcb81611bb3565b91506020830135611c8581611bb3565b600181811c90821680611def57607f821691505b602082108103610a3557634e487b7160e01b600052602260045260246000fd5b6020808252602d908201527f4552433732313a2063616c6c6572206973206e6f7420746f6b656e206f776e6560408201526c1c881bdc88185c1c1c9bdd9959609a1b606082015260800190565b634e487b7160e01b600052603260045260246000fd5b634e487b7160e01b600052601160045260246000fd5b8082018082111561059357610593611e72565b60008351611ead818460208801611b37565b835190830190611ec1818360208801611b37565b01949350505050565b8181038181111561059357610593611e72565b60208082526025908201527f4552433732313a207472616e736665722066726f6d20696e636f72726563742060408201526437bbb732b960d91b606082015260800190565b60208082526032908201527f4552433732313a207472616e7366657220746f206e6f6e20455243373231526560408201527131b2b4bb32b91034b6b83632b6b2b73a32b960711b606082015260800190565b6001600160a01b0385811682528416602082015260408101839052608060608201819052600090611fa790830184611b5b565b9695505050505050565b600060208284031215611fc357600080fd5b8151610d3281611b04565b634e487b7160e01b600052603160045260246000fdfea2646970667358221220fff46a7b23d0b98d819249e35b85f3c93e873f8430506d0aded5527c591848ff64736f6c63430008110033",
    "linkReferences": {}
  },
  "methodIdentifiers": {
    "approve(address,uint256)": "095ea7b3",
    "assign(uint256)": "4c081138",
    "balanceOf(address)": "70a08231",
    "balances(uint256)": "4903b0d1",
    "distributeFees(uint256)": "6029bf9f",
    "feeRecipient(address)": "d78162e9",
    "getApproved(uint256)": "081812fc",
    "getTokenId(address)": "f1537686",
    "isApprovedForAll(address,address)": "e985e9c5",
    "isRegistered(address)": "c3c5a547",
    "name()": "06fdde03",
    "owner()": "8da5cb5b",
    "ownerOf(uint256)": "6352211e",
    "register(address)": "4420e486",
    "renounceOwnership()": "715018a6",
    "safeTransferFrom(address,address,uint256)": "42842e0e",
    "safeTransferFrom(address,address,uint256,bytes)": "b88d4fde",
    "setApprovalForAll(address,bool)": "a22cb465",
    "supportsInterface(bytes4)": "01ffc9a7",
    "symbol()": "95d89b41",
    "tokenByIndex(uint256)": "4f6ccce7",
    "tokenOfOwnerByIndex(address,uint256)": "2f745c59",
    "tokenURI(uint256)": "c87b56dd",
    "totalSupply()": "18160ddd",
    "transferFrom(address,address,uint256)": "23b872dd",
    "transferOwnership(address)": "f2fde38b",
    "withdraw(uint256,address,uint256)": "e63697c8"
  },
  "id": 22
}